{
  "contractName": "HelloBlockchain",
  "abi": [
    {
      "constant": true,
      "inputs": [],
      "name": "ResponseMessage",
      "outputs": [
        {
          "name": "",
          "type": "string"
        }
      ],
      "payable": false,
      "stateMutability": "view",
      "type": "function"
    },
    {
      "constant": true,
      "inputs": [],
      "name": "Responder",
      "outputs": [
        {
          "name": "",
          "type": "address"
        }
      ],
      "payable": false,
      "stateMutability": "view",
      "type": "function"
    },
    {
      "constant": true,
      "inputs": [],
      "name": "RequestMessage",
      "outputs": [
        {
          "name": "",
          "type": "string"
        }
      ],
      "payable": false,
      "stateMutability": "view",
      "type": "function"
    },
    {
      "constant": true,
      "inputs": [],
      "name": "State",
      "outputs": [
        {
          "name": "",
          "type": "uint8"
        }
      ],
      "payable": false,
      "stateMutability": "view",
      "type": "function"
    },
    {
      "constant": true,
      "inputs": [],
      "name": "Flag",
      "outputs": [
        {
          "name": "",
          "type": "uint8"
        }
      ],
      "payable": false,
      "stateMutability": "view",
      "type": "function"
    },
    {
      "constant": true,
      "inputs": [],
      "name": "Requestor",
      "outputs": [
        {
          "name": "",
          "type": "address"
        }
      ],
      "payable": false,
      "stateMutability": "view",
      "type": "function"
    },
    {
      "inputs": [
        {
          "name": "message",
          "type": "string"
        }
      ],
      "payable": false,
      "stateMutability": "nonpayable",
      "type": "constructor"
    },
    {
      "constant": false,
      "inputs": [
        {
          "name": "requestMessage",
          "type": "string"
        },
        {
          "name": "state",
          "type": "uint8"
        }
      ],
      "name": "SendRequest",
      "outputs": [],
      "payable": false,
      "stateMutability": "nonpayable",
      "type": "function"
    },
    {
      "constant": false,
      "inputs": [
        {
          "name": "state",
          "type": "uint8"
        },
        {
          "name": "flag",
          "type": "uint8"
        }
      ],
      "name": "SendResponse",
      "outputs": [],
      "payable": false,
      "stateMutability": "nonpayable",
      "type": "function"
    },
    {
      "constant": false,
      "inputs": [
        {
          "name": "completed",
          "type": "uint256"
        }
      ],
      "name": "SwitcheToOff",
      "outputs": [],
      "payable": false,
      "stateMutability": "nonpayable",
      "type": "function"
    }
  ],
  "bytecode": "0x60806040523480156200001157600080fd5b5060405162000be238038062000be28339810180604052620000379190810190620001c9565b336000806101000a81548173ffffffffffffffffffffffffffffffffffffffff021916908373ffffffffffffffffffffffffffffffffffffffff16021790555080600290805190602001906200008f929190620000bc565b506000600160146101000a81548160ff02191690836001811115620000b057fe5b0217905550506200029f565b828054600181600116156101000203166002900490600052602060002090601f016020900481019282601f10620000ff57805160ff191683800117855562000130565b8280016001018555821562000130579182015b828111156200012f57825182559160200191906001019062000112565b5b5090506200013f919062000143565b5090565b6200016891905b80821115620001645760008160009055506001016200014a565b5090565b90565b600082601f83011215156200017f57600080fd5b81516200019662000190826200023c565b6200020e565b91508082526020830160208301858383011115620001b357600080fd5b620001c083828462000269565b50505092915050565b600060208284031215620001dc57600080fd5b600082015167ffffffffffffffff811115620001f757600080fd5b62000205848285016200016b565b91505092915050565b6000604051905081810181811067ffffffffffffffff821117156200023257600080fd5b8060405250919050565b600067ffffffffffffffff8211156200025457600080fd5b601f19601f8301169050602081019050919050565b60005b83811015620002895780820151818401526020810190506200026c565b8381111562000299576000848401525b50505050565b61093380620002af6000396000f3fe608060405260043610610099576000357c0100000000000000000000000000000000000000000000000000000000900463ffffffff1680635ab28ecb1461009e5780639c26bc4f146100c95780639cfd2ff5146100f2578063d181ada11461011b578063e750e2da14610146578063ea8ca03f14610171578063f1b6dccd1461019a578063f54dd191146101c5578063fd05116c146101f0575b600080fd5b3480156100aa57600080fd5b506100b361021b565b6040516100c09190610762565b60405180910390f35b3480156100d557600080fd5b506100f060048036036100eb91908101906105f5565b6102b9565b005b3480156100fe57600080fd5b5061011960048036036101149190810190610631565b610341565b005b34801561012757600080fd5b5061013061037f565b60405161013d9190610711565b60405180910390f35b34801561015257600080fd5b5061015b6103a5565b6040516101689190610762565b60405180910390f35b34801561017d57600080fd5b5061019860048036036101939190810190610685565b610443565b005b3480156101a657600080fd5b506101af610473565b6040516101bc919061072c565b60405180910390f35b3480156101d157600080fd5b506101da610486565b6040516101e79190610747565b60405180910390f35b3480156101fc57600080fd5b50610205610499565b6040516102129190610711565b60405180910390f35b60038054600181600116156101000203166002900480601f0160208091040260200160405190810160405280929190818152602001828054600181600116156101000203166002900480156102b15780601f10610286576101008083540402835291602001916102b1565b820191906000526020600020905b81548152906001019060200180831161029457829003601f168201915b505050505081565b600060018111156102c657fe5b8160018111156102d257fe5b141561031a5733600160006101000a81548173ffffffffffffffffffffffffffffffffffffffff021916908373ffffffffffffffffffffffffffffffffffffffff1602179055505b81600160146101000a81548160ff0219169083600181111561033857fe5b02179055505050565b81600290805190602001906103579291906104be565b5080600160146101000a81548160ff0219169083600181111561037657fe5b02179055505050565b600160009054906101000a900473ffffffffffffffffffffffffffffffffffffffff1681565b60028054600181600116156101000203166002900480601f01602080910402602001604051908101604052809291908181526020018280546001816001161561010002031660029004801561043b5780601f106104105761010080835404028352916020019161043b565b820191906000526020600020905b81548152906001019060200180831161041e57829003601f168201915b505050505081565b60008111156104705760018060156101000a81548160ff0219169083600181111561046a57fe5b02179055505b50565b600160149054906101000a900460ff1681565b600160159054906101000a900460ff1681565b6000809054906101000a900473ffffffffffffffffffffffffffffffffffffffff1681565b828054600181600116156101000203166002900490600052602060002090601f016020900481019282601f106104ff57805160ff191683800117855561052d565b8280016001018555821561052d579182015b8281111561052c578251825591602001919060010190610511565b5b50905061053a919061053e565b5090565b61056091905b8082111561055c576000816000905550600101610544565b5090565b90565b600061056f8235610846565b905092915050565b6000610583823561085f565b905092915050565b600082601f830112151561059e57600080fd5b81356105b16105ac826107b1565b610784565b915080825260208301602083018583830111156105cd57600080fd5b6105d88382846108a6565b50505092915050565b60006105ed8235610878565b905092915050565b6000806040838503121561060857600080fd5b600061061685828601610563565b925050602061062785828601610577565b9150509250929050565b6000806040838503121561064457600080fd5b600083013567ffffffffffffffff81111561065e57600080fd5b61066a8582860161058b565b925050602061067b85828601610563565b9150509250929050565b60006020828403121561069757600080fd5b60006106a5848285016105e1565b91505092915050565b6106b7816107e8565b82525050565b6106c681610882565b82525050565b6106d581610894565b82525050565b60006106e6826107dd565b8084526106fa8160208601602086016108b5565b610703816108e8565b602085010191505092915050565b600060208201905061072660008301846106ae565b92915050565b600060208201905061074160008301846106bd565b92915050565b600060208201905061075c60008301846106cc565b92915050565b6000602082019050818103600083015261077c81846106db565b905092915050565b6000604051905081810181811067ffffffffffffffff821117156107a757600080fd5b8060405250919050565b600067ffffffffffffffff8211156107c857600080fd5b601f19601f8301169050602081019050919050565b600081519050919050565b60006107f382610826565b9050919050565b600060028210151561080857fe5b819050919050565b600060028210151561081e57fe5b819050919050565b600073ffffffffffffffffffffffffffffffffffffffff82169050919050565b600060028210151561085757600080fd5b819050919050565b600060028210151561087057600080fd5b819050919050565b6000819050919050565b600061088d826107fa565b9050919050565b600061089f82610810565b9050919050565b82818337600083830152505050565b60005b838110156108d35780820151818401526020810190506108b8565b838111156108e2576000848401525b50505050565b6000601f19601f830116905091905056fea265627a7a72305820fb6b4937f3173f46cd9d9b6b364ee2839b0d408226414538ee2319f96732947c6c6578706572696d656e74616cf50037",
  "source": "pragma solidity ^0.5.0;\r\npragma experimental ABIEncoderV2;\r\n\r\ncontract Base {\r\n    address public Requestor;\r\n    address public Responder;\r\n}\r\n\r\ncontract HelloBlockchain is Base\r\n{\r\n    enum StateType { Request, Respond }\r\n    enum SwitcherEnum { On, Off }\r\n\r\n    StateType public  State;\r\n    SwitcherEnum public Flag;\r\n    string public RequestMessage;\r\n    string public ResponseMessage;\r\n\r\n    constructor(string memory message) public\r\n    {\r\n        Requestor = msg.sender;\r\n        RequestMessage = message;\r\n        State = StateType.Request;\r\n    }\r\n\r\n    function SendRequest(string memory requestMessage, StateType state) public\r\n    {\r\n        RequestMessage = requestMessage;\r\n        State = state;\r\n    }\r\n\r\n    function SendResponse(StateType state, SwitcherEnum flag) public\r\n    {\r\n        if (flag == SwitcherEnum.On)\r\n        {\r\n            Responder = msg.sender;\r\n        }\r\n\r\n        State = state;\r\n    }\r\n\r\n    function SwitcheToOff(uint completed) public {\r\n        if(completed > 0)\r\n        {\r\n            Flag = SwitcherEnum.Off;\r\n        }\r\n    }\r\n}\r\n",
  "sourcePath": "contracts/enumTestContract.sol",
  "compiler": {
    "name": "solc",
    "version": "0.5.0+commit.1d4f565a.Emscripten.clang"
  },
  "schemaVersion": "3.0.6",
  "updatedAt": "2019-08-23T08:23:57.044Z",
  "devdoc": {
    "methods": {}
  },
  "userdoc": {
    "methods": {}
  }
}